{
  "contractName": "MultiSignature",
  "abi": [
    {
      "constant": true,
      "inputs": [
        {
          "name": "",
          "type": "uint256"
        }
      ],
      "name": "ownerArr",
      "outputs": [
        {
          "name": "",
          "type": "address"
        }
      ],
      "payable": false,
      "stateMutability": "view",
      "type": "function"
    },
    {
      "constant": true,
      "inputs": [],
      "name": "threshold",
      "outputs": [
        {
          "name": "",
          "type": "uint256"
        }
      ],
      "payable": false,
      "stateMutability": "view",
      "type": "function"
    },
    {
      "constant": true,
      "inputs": [],
      "name": "nonce",
      "outputs": [
        {
          "name": "",
          "type": "uint256"
        }
      ],
      "payable": false,
      "stateMutability": "view",
      "type": "function"
    },
    {
      "inputs": [
        {
          "name": "threshold_",
          "type": "uint256"
        },
        {
          "name": "ownerList",
          "type": "address[]"
        }
      ],
      "payable": false,
      "stateMutability": "nonpayable",
      "type": "constructor"
    },
    {
      "payable": true,
      "stateMutability": "payable",
      "type": "fallback"
    },
    {
      "constant": false,
      "inputs": [
        {
          "name": "sigV",
          "type": "uint8[]"
        },
        {
          "name": "sigR",
          "type": "bytes32[]"
        },
        {
          "name": "sigS",
          "type": "bytes32[]"
        },
        {
          "name": "destination",
          "type": "address"
        },
        {
          "name": "value",
          "type": "uint256"
        },
        {
          "name": "data",
          "type": "bytes"
        }
      ],
      "name": "execute",
      "outputs": [],
      "payable": false,
      "stateMutability": "nonpayable",
      "type": "function"
    }
  ],
  "bytecode": "0x608060405234801561001057600080fd5b50604051610920380380610920833981018060405281019080805190602001909291908051820192919050505060008082519150600a82118061005257508184115b8061005d5750600084145b1561006757600080fd5b600090505b818110156100f057600160026000858481518110151561008857fe5b9060200190602002015173ffffffffffffffffffffffffffffffffffffffff1673ffffffffffffffffffffffffffffffffffffffff16815260200190815260200160002060006101000a81548160ff021916908315150217905550808060010191505061006c565b8260039080519060200190610106929190610117565b5083600181905550505050506101e4565b828054828255906000526020600020908101928215610190579160200282015b8281111561018f5782518260006101000a81548173ffffffffffffffffffffffffffffffffffffffff021916908373ffffffffffffffffffffffffffffffffffffffff16021790555091602001919060010190610137565b5b50905061019d91906101a1565b5090565b6101e191905b808211156101dd57600081816101000a81549073ffffffffffffffffffffffffffffffffffffffff0219169055506001016101a7565b5090565b90565b61072d806101f36000396000f300608060405260043610610062576000357c0100000000000000000000000000000000000000000000000000000000900463ffffffff1680630c1824c11461006457806342cde4e8146100d1578063affed0e0146100fc578063f12d394f14610127575b005b34801561007057600080fd5b5061008f60048036038101908080359060200190929190505050610283565b604051808273ffffffffffffffffffffffffffffffffffffffff1673ffffffffffffffffffffffffffffffffffffffff16815260200191505060405180910390f35b3480156100dd57600080fd5b506100e66102c1565b6040518082815260200191505060405180910390f35b34801561010857600080fd5b506101116102c7565b6040518082815260200191505060405180910390f35b34801561013357600080fd5b50610281600480360381019080803590602001908201803590602001908080602002602001604051908101604052809392919081815260200183836020028082843782019150505050505091929192908035906020019082018035906020019080806020026020016040519081016040528093929190818152602001838360200280828437820191505050505050919291929080359060200190820180359060200190808060200260200160405190810160405280939291908181526020018383602002808284378201915050505050509192919290803573ffffffffffffffffffffffffffffffffffffffff16906020019092919080359060200190929190803590602001908201803590602001908080601f01602080910402602001604051908101604052809392919081815260200183838082843782019150505050505091929192905050506102cd565b005b60038181548110151561029257fe5b906000526020600020016000915054906101000a900473ffffffffffffffffffffffffffffffffffffffff1681565b60015481565b60005481565b60008060008060015489511415156102e457600080fd5b875189511415806102f757508951895114155b1561030157600080fd5b60197f01000000000000000000000000000000000000000000000000000000000000000260007f0100000000000000000000000000000000000000000000000000000000000000023089898960005460405180887effffffffffffffffffffffffffffffffffffffffffffffffffffffffffffff19167effffffffffffffffffffffffffffffffffffffffffffffffffffffffffffff19168152600101877effffffffffffffffffffffffffffffffffffffffffffffffffffffffffffff19167effffffffffffffffffffffffffffffffffffffffffffffffffffffffffffff191681526001018673ffffffffffffffffffffffffffffffffffffffff1673ffffffffffffffffffffffffffffffffffffffff166c010000000000000000000000000281526014018573ffffffffffffffffffffffffffffffffffffffff1673ffffffffffffffffffffffffffffffffffffffff166c0100000000000000000000000002815260140184815260200183805190602001908083835b6020831015156104a1578051825260208201915060208101905060208303925061047c565b6001836020036101000a0380198251168184511680821785525050505050509050018281526020019750505050505050506040518091039020935060009250600091505b600154821015610656576001848b8481518110151561050057fe5b906020019060200201518b8581518110151561051857fe5b906020019060200201518b8681518110151561053057fe5b90602001906020020151604051600081526020016040526040518085600019166000191681526020018460ff1660ff1681526020018360001916600019168152602001826000191660001916815260200194505050505060206040516020810390808403906000865af11580156105ab573d6000803e3d6000fd5b5050506020604051035190508273ffffffffffffffffffffffffffffffffffffffff168173ffffffffffffffffffffffffffffffffffffffff1611158061063c5750600260008273ffffffffffffffffffffffffffffffffffffffff1673ffffffffffffffffffffffffffffffffffffffff16815260200190815260200160002060009054906101000a900460ff16155b1561064657600080fd5b80925081806001019250506104e5565b6001600054016000819055508673ffffffffffffffffffffffffffffffffffffffff16868660405180828051906020019080838360005b838110156106a857808201518184015260208101905061068d565b50505050905090810190601f1680156106d55780820380516001836020036101000a031916815260200191505b5091505060006040518083038185875af19250505015156106f557600080fd5b505050505050505050505600a165627a7a7230582077c3b24c1e95a2df35722fb56e81f242a167a62718827db6447a209fe22ffdfc0029",
  "source": "pragma solidity ^0.4.0;\n\n\ncontract MultiSignature {\n    uint public nonce;\n    uint public threshold;\n    \n    mapping(address => bool) isOwner;\n    address[] public ownerArr;\n    \n    function MultiSignature(uint threshold_, address[] ownerList){\n          uint amountOfOwners = ownerList.length;\n        if (amountOfOwners > 10 || threshold_ > amountOfOwners || threshold_ == 0) { \n            throw;\n        }\n        \n        for (uint owner = 0; owner < amountOfOwners ; owner++) {\n            isOwner[ownerList[owner]] = true;\n        }\n        \n        ownerArr = ownerList;\n        threshold = threshold_;\n        \n    }\n    \n    function execute(uint8[] sigV, bytes32[] sigR, bytes32[] sigS, address destination, uint value, bytes data) {\n        if(sigR.length != threshold) { throw ; }\n        if(sigR.length != sigS.length || sigR.length != sigV.length) { throw; }\n        \n        bytes32 txHash = sha3(byte(0x19), byte(0), this, destination, value, data, nonce);\n        address lastAdd = address(0); // cannot have address(0) as an owner\n    \n        for (uint i = 0; i < threshold; i++) {\n            address recovered = ecrecover(txHash, sigV[i], sigR[i], sigS[i]);\n            if (recovered <= lastAdd || !isOwner[recovered]) throw;\n            lastAdd = recovered;\n        }\n\n        // If we make it here all signatures are accounted for\n        nonce = nonce + 1;\n        if (!destination.call.value(value)(data)) {throw;}\n    }\n\n  function () payable {}\n}",
  "sourcePath": "/Users/einaralex/Development/Projects/understanding_smartcontracts/contracts/MultiSig.sol",
  "compiler": {
    "name": "solc",
    "version": "0.4.24+commit.e67f0147.Emscripten.clang"
  },
  "schemaVersion": "2.0.1",
  "updatedAt": "2018-07-29T01:01:29.590Z"
}